:020000040800F2
:10000000D0050020511A0008591A00085B1A000890
:100010005D1A00085F1A0008611A0008000000005D
:10002000000000000000000000000000631A00084B
:10003000651A000800000000671A0008691A000825
:100040006B1A00086B1A00086B1A00086B1A00087C
:100050006B1A00086B1A00086B1A00086B1A00086C
:100060006B1A00086B1A00086B1A00086B1A00085C
:100070006B1A00086B1A00086B1A00086B1A00084C
:100080006B1A00086B1A00086B1A00086B1A00083C
:100090006B1A00086B1A00086B1A00086B1A00082C
:1000A0006B1A00086B1A00086B1A00086B1A00081C
:1000B0006B1A00086B1A00086B1A00086B1A00080C
:1000C0006B1A00086B1A00086B1A00086B1A0008FC
:1000D0006B1A0008AF0D00086B1A00086B1A0008B5
:1000E0006B1A00086B1A00086B1A00086B1A0008DC
:1000F0006B1A00086B1A00086B1A00086B1A0008CC
:100100006B1A00086B1A00086B1A00086B1A0008BB
:100110006B1A00086B1A00086B1A00086B1A0008AB
:100120006B1A00086B1A00086B1A00086B1A00089B
:10013000DFF80CD001F0B0FC004800474501000892
:10014000D0050020C6B00024202220A128A801F05C
:1001500091FC402225A118A801F08CFC202233A19B
:1001600010A801F087FC402238A1684601F082FC0B
:1001700000F0DAFA29E044A800F029FB40A800F0DA
:100180003CFB044600F06AFB044630A800F09DFBEF
:10019000044610A800F08BFC0446684600F0C7FC3B
:1001A000044618A928A800F0E4FB044628A918A8CA
:1001B00000F02EFC044630AA18A9072000F0F7FC36
:1001C000044604F57A7000F098F9D4E7F15C16B9AA
:1001D0009F82D8201767D3A841FF40849C8A1B8147
:1001E0002FFBFD2E393D2B6AA6682A6E13E8A26C00
:1001F00067CD5AA84875E221E478965F766510AF1E
:10020000A9BAB04996085591A2DF128991F1C708A1
:10021000E8A219484E6112222C1CB4C182B894493C
:10022000C27A8E4CB6C0DFAF4E381972AF9EE5026F
:10023000EA97F7DCAB27D7E042F41BF90C31ADBAF3
:10024000BB25A54D2489D52C517E5B55B49104A0C6
:1002500068A92EDF547C265E86567308261BD39C25
:10026000BDB95D8D96E9F9A4454CA7A73C7C013347
:100270000B7E715A98ABCF83A97D54B9A5BE442D8E
:10028000B93943E3066954A1F893279D0CB50020C2
:10029000019000906C48006840F480306A49086022
:1002A00000BF6948006800F4003000900198401CCD
:1002B0000190009818B90198B0F5A06FF1D162488B
:1002C000006800F4003010B10120009001E000202F
:1002D00000900098012843D15C48006840F010006D
:1002E0005A4908600846006820F003000860084684
:1002F000006840F002000860534840685249486076
:100300000846406848600846406840F4806048609D
:100310000846406820F47C1048600846406840F475
:10032000E81048600846006840F08070086000BF30
:100330004548006800F000700028F9D04248406845
:1003400020F00300404948600846406840F0020041
:10035000486000BF3C48406800F00C000828F9D114
:100360000CBD10B5FFF792FF10BD10B53648006800
:1003700040F00100344908600846406834490840AC
:100380003149486008460068324908402E490860F3
:100390000846006820F4802008600846406820F481
:1003A000FE0048604FF41F008860FFF7DAFF4FF04F
:1003B00000602949086010BD10B50021002000220E
:1003C000214B5B6803F00C0121B1042906D00829F8
:1003D00028D107E0214B224C236027E01F4B204C03
:1003E000236023E0184B5B6803F47010164B5B68C6
:1003F00003F48032022303EB904022B9194B4343AC
:10040000174C23600DE0104B5B6803F4003323B1FD
:10041000144B4343124C236003E0104B4343104CF6
:10042000236003E00D4B0E4C236000BF00BF064B62
:100430005B68C3F303130C4CE15C094B1B68CB40B6
:10044000074C236010BD0000001002400020024055
:100450000000FFF8FFFFF6FE08ED00E000127A0052
:100460000000002000093D0004000020002141E0C0
:1004700000BF00BF00BF00BF00BF00BF00BF00BF84
:1004800000BF00BF00BF00BF00BF00BF00BF00BF74
:1004900000BF00BF00BF00BF00BF00BF00BF00BF64
:1004A00000BF00BF00BF00BF00BF00BF00BF00BF54
:1004B00000BF00BF00BF00BF00BF00BF00BF00BF44
:1004C00000BF00BF00BF00BF00BF00BF00BF00BF34
:1004D00000BF00BF00BF00BF00BF00BF00BF00BF24
:1004E00000BF00BF00BF00BF00BF00BF00BF00BF14
:1004F00000BF491C8142BBD3704710B5034600249E
:1005000004E04FF47A70FFF7B1FF641C9C42F8D30B
:1005100010BD000008B50121042001F031F81020C1
:10052000ADF800008DF8030003208DF80200694645
:10053000FB4800F069FD2020ADF8000010208DF888
:10054000030003208DF802006946F54800F05CFDC9
:100550008020ADF8000010208DF8030003208DF8F6
:1005600002006946EE4800F04FFD4020ADF8000063
:1005700048208DF8030003208DF802006946E84802
:1005800000F042FD08BD10B51021E54800F0E9FD7E
:100590002820FFF76BFF1021E14800F0E4FD022066
:1005A000FFF764FF10BD10B50120FFF75FFF1021BA
:1005B000DB4800F0D6FD10BD70B50546002400BF35
:1005C00019E02021D64800F0CCFDC4F1070045FA1F
:1005D00000F000F0010020B18021D14800F0C1FD01
:1005E00003E08021CE4800F0BEFD2021CC4800F081
:1005F000BAFD601CC4B2082CE3DB2021C84800F01F
:10060000B0FD0120FFF732FF70BD70B5002400255A
:1006100010E02021C24800F0A6FD6006040E402133
:10062000BF4800F084FD04432021BD4800F099FD3F
:10063000681CC5B2082DECDB0120FFF717FF204630
:1006400070BD2DE9F04104460025FFF79CFF022014
:10065000FFF7B2FF1020FFF709FF6078FFF7ACFF4C
:100660006078454067783F02A078FFF7A5FFA07843
:100670004540A0780744002607E0A119C878FFF795
:100680009BFFA019C0784540761CBE42F5D3E843D5
:10069000C5B22846FFF790FFFFF785FFBDE8F08160
:1006A0002DE9F0410646FFF76EFF0320FFF784FFB8
:1006B0001020FFF7DBFEFFF7A8FF8046FFF7A5FF3E
:1006C0000746B8F1000F01D0002500E03D460024A8
:1006D00003E0FFF79AFF3055641C681C8442F8D38E
:1006E000FFF761FFBDE8F08110B50024FFF74BFF75
:1006F0000520FFF761FF1020FFF7B8FEFFF785FF29
:100700000446FFF750FF204610BD10B5002400BF7F
:1007100005E0FFF7E9FF08B9012010BD641CB4F53E
:10072000FA6FF6D30020F8E710B5FFF7F3FE80214B
:100730007B4800F016FD0120FFF798FE2021784845
:1007400000F00FFD0120FFF791FE1021744800F02A
:1007500008FD0A20FFF7D1FE022072490870002030
:100760004870072088700020C870A42008710020FD
:10077000487188710220C871DF2008720120487218
:100780000846FFF75EFFFFF7C0FF6648FFF788FFE8
:1007900002206449087000204870082088700020FA
:1007A000C870202008710020487188710320C8712A
:1007B0001120087222204872332088720846FFF701
:1007C00040FFFFF7A2FF5748FFF76AFF10BD70B563
:1007D00005460024FFF7D7FE9F20FFF7EDFE10200F
:1007E000FFF744FE00BF03E0FFF70FFF2855641C2E
:1007F000072CF9DBFFF7D7FE70BD70B50546002466
:1008000002204849087000204870052088700020A8
:10081000C870842008710020487188711020C87148
:100820000846FFF70EFFFFF770FF08B9002070BD04
:100830003C48FFF735FF3B48007C902802D13948FF
:10084000407C08B10020F2E7002403E03548005D59
:100850002855641C102CF9DB0120E8E710B50220B4
:1008600030490870002048700D2088708020C870C2
:10087000302008710020487188710820C871C2209A
:100880000872022048720A2088729820C872C0201C
:10089000087302204873002088730820C873084634
:1008A000FFF7CFFEFFF731FF08B9002010BD1D484C
:1008B000FFF7F6FE1B480078902804D119484078CD
:1008C00008B90120F2E70020F0E770B505460024E2
:1008D000022014490870002048700720887000200A
:1008E000C870A42008710020487188710220C87166
:1008F00000200872082048720846FFF7A2FEFFF7A2
:1009000004FF08B9002070BD0648FFF7C9FE05487E
:100910000078902802D10348407828B10020F2E7FF
:1009200000080140400000200220BD49087000205E
:100930004870052088700020C870B0200871002021
:10094000487188714020C8710846FFF77AFEFFF7AA
:10095000DCFE08B90020D6E7B148FFF7A1FE00246D
:1009600003E0AF48005D2855641C402CF9DB0120F2
:10097000C9E770B505460E4600240220A849087054
:10098000002048702D2088708020C8703E2008719B
:1009900000204871012088712820C871C220087287
:1009A000022048720A2088729820C872C1200873F9
:1009B00082204873002088732020C87300BF05E0A0
:1009C000295D974A04F110001154641C202CF7DBB8
:1009D0009348FFF736FEFFF798FE08B9002070BD78
:1009E0008F48FFF75DFE8E4890F84000902803D1B5
:1009F0008B4890F8410008B10020F0E7002403E0A4
:100A00008748005D3055641C402CF9DB0120E6E787
:100A100070B505460E46002402208149087000206A
:100A200048706D2088708020C8703C2008710020BC
:100A30004871012088716820C871C02008720220A6
:100A40004872002088720820C872C1200873822072
:100A50004873002088736020C87300BF05E0315DD3
:100A60006F4A04F110001154641C202CF7DB0024A1
:100A700005E0295D6A4A04F130001154641C402CE1
:100A8000F7DB6748FFF7DDFDFFF73FFE08B9002001
:100A900070BD6348FFF704FE61480078902804D1D8
:100AA0005F48407808B90120F2E70020F0E770B510
:100AB0000546002402205A490870002048702B2067
:100AC00088708020C8703A200871402048718020CA
:100AD00088712620C871C2200872022048720A203C
:100AE00088729820C872CB2008732020487300BFFA
:100AF00005E0295D4A4A04F10E001154641C202CC3
:100B0000F7DB4748FFF79DFDFFF7FFFD08B9002021
:100B100070BD4348FFF7C4FD41480078902804D1D8
:100B20003F48407808B90120F2E70020F0E770B5AF
:100B30000546002402203A490870002048704B20E6
:100B400088708020C8703A200871402048710020C9
:100B500088714620C871C0200872022048720020A7
:100B600088720820C872CA2008734020487300BFEA
:100B700005E0295D2A4A04F10E001154641C402C42
:100B8000F7DB2748FFF75DFDFFF7BFFD08B9002041
:100B900070BD2348FFF784FD21480078902804D1D8
:100BA0001F48407808B90120F2E70020F0E7F0B5CF
:100BB00091B005460E46174600244022194901A867
:100BC00000F058FF022016490870002048701720D6
:100BD00088708020C870E4200871012048710220CC
:100BE00088711220C871C12008721020487200BF9D
:100BF00006E001A8015D0A4A04F10A001154641CD0
:100C0000102CF6D30648FFF71CFDFFF77EFD10B948
:100C1000002011B0F0BD0248FFF742FD0120F8E7C7
:100C200040000020DC1A000808B525208DF80000DF
:100C300006208DF8010000208DF8020001208DF8BB
:100C40000300684600F017F908BD00B585B0FFF74E
:100C5000EBFF0121042000F093FC0121880300F048
:100C60008FFC4FF40070ADF8100018208DF81300C1
:100C700003208DF8120004A9714800F0C5F94FF463
:100C80008060ADF8100004208DF8130004A96C48B2
:100C900000F0BAF94FF4E13000900020ADF8040004
:100CA000ADF80600ADF80800ADF80C000C20ADF86A
:100CB0000A006946634800F00AFD012240F225510E
:100CC000604800F09CFD012240F226615D4800F082
:100CD00096FD01215B4800F086FD05B000BD10B512
:100CE0000120594908705948594A1268815C554891
:100CF00000F0E6FD57480068401E56490860544819
:100D00000068401C5249086008460068402801D12C
:100D10000020086010BD70B5044600BF4D48006853
:100D20004028FBD0602000F086F849480068494917
:100D30000968084400F03F054448445545480068A8
:100D4000401C44490860002000F075F870BD10B5E3
:100D5000602000F070F8404840490968445C3F4812
:100D60000068401C3D49086008460068402801D1E1
:100D7000002008603A480068401E3949086008466B
:100D8000006810B9002037490870002000F053F8BF
:100D9000204610BD70B504460D46E0B2FFF7BBFF1C
:100DA0002948007808B9FFF79AFF204670BD10B5B2
:100DB00040F22661234800F007FE70B140F2266140
:100DC000204800F02BFE2348006810B1FFF787FF92
:100DD0002AE000201C49087026E040F225511948FD
:100DE00000F0F2FD00B340F22551164800F016FE67
:100DF00001201C4908701A480068402803D10120CE
:100E00001949087010E01648006814490968084438
:100E100000F03F040B4800F057FD0F4908551048FB
:100E20000068401C0E49086010BD0E4800787047ED
:100E3000054800787047C1B281F3118870470000FF
:100E40000008014000380140140000208F010020FC
:100E500028000020240000204F0100201C0000205A
:100E60001800002015000020200000203149014317
:100E7000314A1160704770B5002100230F22C478F9
:100E800004B32D4C246804F4E064C4F5E064210A42
:100E9000C1F10403CA40447804FA03F18478144091
:100EA00021430901254C0678A155047804F01F055B
:100EB0000124AC4005786D11AD0005F1E025C5F8C1
:100EC000004109E0047804F01F050124AC401C4DEA
:100ED0000678761145F8264070BD1A4A0A4002434A
:100EE000154B1B1F1A60704739B1134A121D126847
:100EF0000243114B1B1D1A6006E00F4A121D1268B7
:100F000082430D4B1B1D1A607047042808D14FF017
:100F1000E021096941F004014FF0E022116107E08E
:100F20004FF0E021096921F004014FF0E022116146
:100F3000704700000000FA050CED00E000E400E05E
:100F400080E100E080FFFF1F10B50446CC488442DA
:100F500008D10121042000F02DFB0021042000F025
:100F600029FB46E0C748844208D10121082000F04F
:100F700021FB0021082000F01DFB3AE0C24884421A
:100F800008D10121102000F015FB0021102000F0F5
:100F900011FB2EE0BD48844208D10121202000F041
:100FA00009FB0021202000F005FB22E0B848844224
:100FB00008D10121402000F0FDFA0021402000F07E
:100FC000F9FA16E0B348844208D10121802000F0EC
:100FD000F1FA0021802000F0EDFA0AE0AE488442E8
:100FE00007D10121801500F0E5FA0021A01500F0DD
:100FF000E1FA10BD10B50121084600F0DBFA00212E
:10100000012000F0D7FA10BD2DE9F041024600257D
:101010000026002000230024002791F803C00CF0D4
:101020000F0591F803C00CF0100CBCF1000F03D0B9
:1010300091F802C04CEA050591F800C0BCF1000F20
:1010400031D0146800202BE04FF0010C0CFA00F3B3
:10105000B1F800C00CEA03069E4220D183004FF095
:101060000F0C0CFA03F7BC4305FA03FC4CEA04042A
:1010700091F803C0BCF1280F06D14FF0010C0CFA17
:1010800000FCC2F814C00AE091F803C0BCF1480F9C
:1010900005D14FF0010C0CFA00FCC2F810C0401C46
:1010A0000828D1D31460B1F800C0BCF1FF0F34DDC3
:1010B000546800202EE000F1080C4FF0010808FAF7
:1010C0000CF3B1F800C00CEA03069E4221D1830064
:1010D0004FF00F0C0CFA03F7BC4305FA03FC4CEA83
:1010E000040491F803C0BCF1280F05D100F1080CED
:1010F00008FA0CF8C2F8148091F803C0BCF1480F4C
:1011000007D100F1080C4FF0010808FA0CF8C2F8FA
:101110001080401C0828CED35460BDE8F0814FF603
:10112000FF710180022181700421C1707047024665
:10113000002093680B400BB1012000E000207047B5
:101140000146886880B2704702460020D3680B4091
:101150000BB1012000E0002070470146C86880B252
:10116000704701617047416170470AB1016100E059
:1011700041617047C16070474FF480320A43826119
:101180008161826182698269704702460020434B17
:1011900018684FF68073184040EA021008433F4B2E
:1011A000186070473E49C8617047F0B50A46002391
:1011B00000240021002500F00046B6F1004F02D1C6
:1011C000364EF16901E0354E7168C0F3034583B2D4
:1011D00000F44016B6F5401F08D121F070612F4E83
:1011E000766826F070662D4F7E6012E000F480165F
:1011F000B6F5801F06D1032606FA05F4A14341F097
:10120000706106E0460D360103FA06F6B14341F07F
:10121000706122B1460D360103FA06F6314300F043
:101220000046B6F1004F02D11C4EF16101E01B4EA9
:101230007160F0BD30B500228B071C0F0F2303FA3D
:1012400004F2164B08338C1053F824309343134C9C
:1012500008348D1044F8253023468C1053F8243080
:101260008C07240F00FA04F423430C4C08348D102F
:1012700044F8253030BD0A49DC3108607047000071
:1012800000080140000C0140001001400014014022
:1012900000180140001C01400020014000000140F6
:1012A00000002042DF48006840F00100DD4908608E
:1012B00008464068DC490840DA494860084600684A
:1012C000DA490840D74908600846006820F48020C1
:1012D00008600846406820F4FE0048604FF41F0094
:1012E00088607047CF49096821F48031CD4A116088
:1012F0001146096821F480211160B0F5803F03D0C8
:10130000B0F5802F0ED106E0C649096841F480315E
:10131000C44A116007E0C349096841F4A021C14AE9
:10132000116000E000BF00BF704710B50146002209
:10133000002300204A11012A02D1BA4C236806E09A
:10134000022A02D1B74C236A01E0B64C636A01F06D
:101350001F02012494401C400CB1012000E0002039
:1013600010BD38B5002000900024002500BF3120BA
:10137000FFF7DBFF05460098401C00900098B0F591
:10138000A06F01D0002DF2D03120FFF7CEFF08B1C1
:10139000012400E00024204638BD01460020A14A77
:1013A000106820F0F80040EAC10010607047A049C2
:1013B00008607047024600209A4B586820F47C1061
:1013C00042EA01031843974B5860704798490866F2
:1013D000704701460020934A506820F003000843FC
:1013E000506070478F48406800F00C00704701461D
:1013F00000208C4A506820F0F0000843506070478D
:1014000001460020874A506820F4E060084350609D
:10141000704701460020834A506820F4605040EA3B
:10142000C1005060704729B17E4A527A02437D4B19
:101430005A7204E07B4A527A82437A4B5A7270475E
:101440007B49D8310860704701460020754A5068D2
:1014500020F440400843506070470021714A203218
:101460001170704A82F82010012802D004280AD195
:1014700004E001216B4A2032117005E00521694A20
:101480002032117000E000BF00BF7047694908605A
:1014900070476449096A0143624A116270476549AD
:1014A00044390860704730B5002100220024002331
:1014B0005C4D6D6805F00C0121B1042905D00829A7
:1014C00023D105E05C4D056022E05B4D05601FE027
:1014D000544D6D6805F47012524D6D6805F48034FA
:1014E000022505EB92421CB9544D554305600BE0B3
:1014F0004C4D6D6805F400351DB1504D55430560E8
:1015000002E04D4D5543056002E04B4D056000BFC4
:1015100000BF444D6D6805F0F0010909484D6B5C52
:101520000568DD4045603F4D6D6805F4E061090ADE
:10153000434D6B5C4568DD4085603A4D6D6805F450
:101540006051C90A3E4D6B5C4568DD40C560354D54
:101550006D6805F44041890B3A4D6B5CC568B5FB7D
:10156000F3F5056130BD29B12E4A526902432D4B76
:101570005A6104E02B4A526982432A4B5A617047F0
:1015800029B1284A92690243264B9A6104E0254A10
:1015900092698243234B9A61704729B1214AD269EB
:1015A0000243204BDA6104E01E4AD26982431D4B9C
:1015B000DA61704729B11B4AD2680243194BDA60DD
:1015C00004E0184AD2688243164BDA60704729B1AA
:1015D000144A12690243134B1A6104E0114A12695A
:1015E0008243104B1A6170471249403908607047B6
:1015F0000F49C86470470B49C87170470948406A71
:1016000040F0807007494862704701460020054A53
:1016100092680A400AB1012000E0002070470149A9
:1016200088727047001002400000FFF8FFFFF6FECE
:10163000000042428004424200127A0000093D004C
:101640002C0000203C00002010B50446FB488442DA
:1016500009D101218803FFF7ADFF00214FF480403D
:10166000FFF7A8FF32E0F648844209D1012148047F
:10167000FFF7ADFF00214FF40030FFF7A8FF25E092
:10168000F048844209D101218804FFF7A0FF00211E
:101690004FF48020FFF79BFF18E0EB48844209D10C
:1016A0000121C804FFF793FF00214FF40020FFF74A
:1016B0008EFF0BE0E548844208D101210805FFF7C1
:1016C00086FF00214FF48010FFF781FF10BD2DE948
:1016D000F04786B005460E460024A24600BFA1464C
:1016E0000027B08900B100BF2F462C8A4CF6FF704E
:1016F0000440F08804432C82AC894EF6F310044079
:10170000B08831890843718908430443AC81AC8AAD
:101710004FF6FF400440B0890443AC8201A8FFF7B4
:10172000C2FEC648874202D1DDF810A001E0DDF814
:101730000CA0A88900F4004040B10AEBCA0000EBFD
:101740000A1031684900B0FBF1F807E00AEBCA0063
:1017500000EB0A1031688900B0FBF1F86420B8FB97
:10176000F0F004012009642101FB1089A88900F42C
:10177000004040B1322000EBC900B0FBF1F000F0B6
:101780000700044308E0322000EB09106421B0FB9D
:10179000F1F000F00F0004432C8106B0BDE8F087A3
:1017A0004FF41651016000218180C18001810C211C
:1017B000418100218181704710B502460020108AC6
:1017C0004FF2FF0318400B884C8823438C88234337
:1017D000CC8823431843108210BD00210180418032
:1017E0008180C180704721B1828942F40052828198
:1017F00004E082894DF6FF731A4082817047F0B58C
:101800000346002400260025002040F66A17B9424E
:1018100000D100BF1846C1F3421401F01F06012792
:1018200007FA06F5012C01D10C3004E0022C01D19D
:10183000103000E014301AB107682F43076002E04F
:101840000768AF430760F0BD1AB1838A0B438382F8
:1018500002E0838A8B4383827047028A4FF6F073DB
:101860001A400282028A0A430282704782894FF23A
:10187000FF731A40828182890A438281704721B1B5
:10188000828942F00202828104E082894FF6FD7370
:101890001A4082817047028A4FF6DF731A40028233
:1018A000028A0A430282704721B1028A42F48042CE
:1018B000028204E0028A4BF6FF731A4002827047EC
:1018C000C1F308028280704701468888C0F308008F
:1018D0007047818941F0010181817047028BD2B24A
:1018E0000283028B42EA012202837047028B02F4D8
:1018F0007F420283028B0A430283704721B1828AAE
:1019000042F02002828204E0828A4FF6DF731A409E
:101910008282704721B1828A42F01002828204E002
:10192000828A4FF6EF731A408282704721B1828A11
:1019300042F00802828204E0828A4FF6F7731A406E
:101940008282704721B1828942F40042828103E0A1
:101950008289C2F30E028281704721B1828A42F4E9
:101960000062828204E0828A4FF2FF731A40828210
:101970007047828A4FF6FB731A408282828A0A433A
:101980008282704721B1828A42F00202828204E0A0
:10199000828A4FF6FD731A40828270470246002009
:1019A000B1F5007F00D100BF13880B400BB10120BF
:1019B00000E00020704701F40072B2F5007F00D112
:1019C00000BFCA430280704770B50246002400235E
:1019D0000025002040F66A16B14200D100BFC1F3D5
:1019E000421501F01F03012606FA03F3012D02D16F
:1019F0009689334006E0022D02D1168A334001E079
:101A0000968A33400C12012606FA04F416883440F4
:101A100013B10CB1012000E0002070BD10B5002210
:101A2000002340F66A14A14200D100BF0A1201242B
:101A30009440A3B2DC43048010BD00000038014094
:101A40000044004000480040004C0040005000406E
:101A50000648804706480047FEE7FEE7FEE7FEE748
:101A6000FEE7FEE7FEE7FEE7FEE7FEE76B030008A2
:101A70003101000840EA01039B0703D009E008C9CF
:101A8000121F08C0042AFAD203E011F8013B00F843
:101A9000013B521EF9D27047064C074D06E0E06844
:101AA00040F0010394E8070098471034AC42F6D3A5
:101AB000FEF742FB1C1B00083C1B000802E008C8A4
:101AC000121F08C1002AFAD170477047002001E0B8
:101AD00001C1121F002AFBD17047000030313233A0
:101AE0003435363738396162636465666768696AB8
:101AF0006B6C6D6E6F707172737475767778797ABE
:101B000000000000000000000000000000000000D5
:101B10000000000000000000000000003C1B000866
:101B20000000002040000000BC1A00087C1B0008D8
:101B30004000002090050000CC1A000800A24A04D2
:101B4000000000000000000001020304060708096D
:101B50000000000000000000000000000000000085
:101B6000000000000000000000000000010203046B
:0C1B70000102030406070809020406082D
:0400000508000131BD
:00000001FF
