:020000040800F2
:10000000A8040020A5120008AD120008AF120008D5
:10001000B1120008B3120008B51200080000000079
:10002000000000000000000000000000B7120008FF
:10003000B912000800000000BB120008BD12000841
:10004000BF120008BF120008BF120008BF1200084C
:10005000BF120008BF120008BF120008BF1200083C
:10006000BF120008BF120008BF120008BF1200082C
:10007000BF120008BF120008BF120008BF1200081C
:10008000BF120008BF120008BF120008BF1200080C
:10009000BF120008BF120008BF120008BF120008FC
:1000A000BF120008BF120008BF120008BF120008EC
:1000B000BF120008BF120008BF120008BF120008DC
:1000C000BF120008BF120008BF120008BF120008CC
:1000D000BF120008BF120008BF120008BF120008BC
:1000E000BF120008BF120008BF120008BF120008AC
:1000F000BF120008BF120008BF120008BF1200089C
:10010000BF120008BF120008BF120008BF1200088B
:10011000BF120008BF120008BF120008BF1200087B
:10012000BF120008BF120008BF120008BF1200086B
:10013000DFF80CD001F0DAF800480047450100086C
:10014000A8040020C6B0002420221DA128A801F088
:10015000BBF8402222A118A801F0B6F8202230A155
:1001600010A801F0B1F8402235A1684601F0ACF8C2
:1001700000F0D1FA23E044A800F020FB40A800F0F2
:1001800033FB044600F062FB044630A800F095FB08
:10019000044610A800F083FC0446684600F0BFFC4B
:1001A000044618A928A800F0DDFB044628A918A8D1
:1001B00000F027FC044604F57A7000F098F9DAE7BD
:1001C000F15C16B99F82D8201767D3A841FF4084FD
:1001D0009C8A1B812FFBFD2E393D2B6AA6682A6E57
:1001E00013E8A26C67CD5AA84875E221E478965FBF
:1001F000766510AFA9BAB04996085591A2DF128969
:1002000091F1C708E8A219484E6112222C1CB4C112
:1002100082B89449C27A8E4CB6C0DFAF4E3819729C
:10022000AF9EE502EA97F7DCAB27D7E042F41BF973
:100230000C31ADBABB25A54D2489D52C517E5B551B
:10024000B49104A068A92EDF547C265E86567308FC
:10025000261BD39CBDB95D8D96E9F9A4454CA7A793
:100260003C7C01330B7E715A98ABCF83A97D54B986
:10027000A5BE442DB93943E3066954A1F893279DDF
:100280000CB50020019000906C48006840F480306C
:100290006A49086000BF6948006800F400300090B7
:1002A0000198401C0190009818B90198B0F5A06F12
:1002B000F1D16248006800F4003010B101200090D4
:1002C00001E0002000900098012843D15C480068BC
:1002D00040F010005A4908600846006820F003000A
:1002E00008600846006840F0020008605348406813
:1002F000524948600846406848600846406840F4F3
:10030000806048600846406820F47C1048600846D9
:10031000406840F4E81048600846006840F080708B
:10032000086000BF4548006800F000700028F9D060
:100330004248406820F00300404948600846406851
:1003400040F00200486000BF3C48406800F00C00EC
:100350000828F9D10CBD10B5FFF792FF10BD10B5FC
:100360003648006840F0010034490860084640689B
:10037000344908403149486008460068324908401D
:100380002E4908600846006820F48020086008466E
:10039000406820F4FE0048604FF41F008860FFF7BB
:1003A000DAFF4FF000602949086010BD10B5002148
:1003B00000200022214B5B6803F00C0121B10429CD
:1003C00006D0082928D107E0214B224C236027E0E2
:1003D0001F4B204C236023E0184B5B6803F4701024
:1003E000164B5B6803F48032022303EB904022B982
:1003F000194B4343174C23600DE0104B5B6803F42B
:10040000003323B1144B4343124C236003E0104BE1
:100410004343104C236003E00D4B0E4C236000BFA0
:1004200000BF064B5B68C3F303130C4CE15C094B44
:100430001B68CB40074C236010BD00000010024039
:10044000002002400000FFF8FFFFF6FE08ED00E08C
:1004500000127A000000002000093D000400002086
:10046000002141E000BF00BF00BF00BF00BF00BFD0
:1004700000BF00BF00BF00BF00BF00BF00BF00BF84
:1004800000BF00BF00BF00BF00BF00BF00BF00BF74
:1004900000BF00BF00BF00BF00BF00BF00BF00BF64
:1004A00000BF00BF00BF00BF00BF00BF00BF00BF54
:1004B00000BF00BF00BF00BF00BF00BF00BF00BF44
:1004C00000BF00BF00BF00BF00BF00BF00BF00BF34
:1004D00000BF00BF00BF00BF00BF00BF00BF00BF24
:1004E00000BF00BF00BF491C8142BBD3704710B59D
:1004F0000346002404E04FF47A70FFF7B1FF641C58
:100500009C42F8D310BD000008B50121042000F082
:1005100065FE1020ADF800008DF8030003208DF873
:1005200002006946FA4800F09DFB2020ADF800006B
:1005300010208DF8030003208DF802006946F4486E
:1005400000F090FB8020ADF8000010208DF8030033
:1005500003208DF802006946ED4800F083FB40203F
:10056000ADF8000048208DF8030003208DF802004C
:100570006946E74800F076FB08BD10B51021E44855
:1005800000F01DFC2820FFF76BFF1021E04800F071
:1005900018FC0220FFF764FF10BD10B50120FFF723
:1005A0005FFF1021DA4800F00AFC10BD70B5054667
:1005B000002400BF19E02021D54800F000FCC4F160
:1005C000070045FA00F000F0010020B18021D0487A
:1005D00000F0F5FB03E08021CD4800F0F2FB202184
:1005E000CB4800F0EEFB601CC4B2082CE3DB2021FA
:1005F000C74800F0E4FB0120FFF732FF70BD70B583
:100600000024002510E02021C14800F0DAFB60063C
:10061000040E4021BE4800F0B8FB04432021BC4832
:1006200000F0CDFB681CC5B2082DECDB0120FFF704
:1006300017FF204670BD2DE9F04104460025FFF765
:100640009CFF0220FFF7B2FF1020FFF709FF607840
:10065000FFF7ACFF60784540A078FFF7A7FFA078D0
:100660004540A778002607E0A119C878FFF79EFF4C
:10067000A019C0784540761CBE42F5D3E843C5B208
:100680002846FFF793FFFFF788FFBDE8F0812DE9CB
:10069000F0410646FFF771FF0320FFF787FF1020A8
:1006A000FFF7DEFEFFF7ABFF8046FFF7A8FF074628
:1006B000B8F1000F01D0002500E03D46002403E022
:1006C000FFF79DFF3055641C681C8442F8D3FFF788
:1006D00064FFBDE8F08110B50024FFF74EFF052050
:1006E000FFF764FF1020FFF7BBFEFFF788FF04460B
:1006F000FFF753FF204610BD10B5002400BF05E0F2
:10070000FFF7E9FF08B9E0B210BD641CB4F5FA6F59
:10071000F6D30020F8E710B5FFF7F6FE80217C48FD
:1007200000F04DFB0120FFF79BFE2021784800F0F0
:1007300046FB0120FFF794FE1021754800F03FFBB7
:100740000A20FFF7D4FE022072490870002048708A
:10075000072088700020C870A4200871002048710C
:1007600088710220C871DF20087201204872084693
:10077000FFF761FFFFF7C0FF6648FFF788FF022021
:100780006449087000204870082088700020C870F4
:10079000202008710020487188710320C871112041
:1007A000087222204872332088720846FFF743FF00
:1007B000FFF7A2FF5748FFF76AFF10BD70B5054667
:1007C0000024FFF7DAFE9F20FFF7F0FE1020FFF76E
:1007D00047FE00BF03E0FFF712FF2855641C072CFB
:1007E000F9DBFFF7DAFE70BD70B505460024022084
:1007F0004849087000204870052088700020C870A3
:10080000842008710020487188711020C871084642
:10081000FFF711FFFFF770FF08B9002070BD3D48DA
:10082000FFF735FF3B48007C902802D13948407CD7
:1008300008B10020F2E7002404E03649A01C085C5F
:100840002855641C102CF8DB0120E7E710B50220C6
:1008500030490870002048700D2088708020C870D2
:10086000302008710020487188710820C871C220AA
:100870000872022048720A2088729820C872C0202C
:10088000087302204873002088730820C873084644
:10089000FFF7D1FEFFF730FF08B9002010BD1D485B
:1008A000FFF7F5FE1B480078902804D119484078DE
:1008B00008B90120F2E70020F0E770B505460024F2
:1008C000022014490870002048700720887000201A
:1008D000C870A42008710020487188710220C87176
:1008E00000200872082048720846FFF7A4FEFFF7B0
:1008F00003FF08B9002070BD0648FFF7C8FE054891
:100900000078902802D10348407828B10020F2E70F
:1009100000080140280000200220A14908700020A2
:100920004870052088700020C870B0200871002031
:10093000487188714020C8710846FFF77CFEFFF7B8
:10094000DBFE08B90020D6E79548FFF7A0FE00249B
:1009500004E09349A01C085C2855641C402CF8DB7B
:100960000120C8E770B505460E46002402208C49D8
:100970000870002048702D2088708020C8703E20AC
:10098000087100204871012088712820C871C22098
:100990000872022048720A2088729820C872C1200A
:1009A000087382204873002088732020C87300BF1A
:1009B00005E0295D7A4A04F110001154641C202CD2
:1009C000F7DB7748FFF737FEFFF796FE08B9002000
:1009D00070BD7348FFF75BFE714890F840009028A7
:1009E00003D16F4890F8410008B10020F0E70024DF
:1009F00003E06B48005D3055641C402CF9DB01209E
:100A0000E6E770B505460E460024002064490870EC
:100A100048706D2088708020C8703C2008710020CC
:100A20004871012088716820C871C02008720220B6
:100A30004872002088720820C872C1200873822082
:100A40004873002088736020C87300BF05E0315DE3
:100A5000534A04F110001154641C202CF7DB0024CD
:100A600005E0295D4E4A04F130001154641C402C0D
:100A7000F7DB4B48FFF7DFFDFFF73EFE08B900202C
:100A800070BD4748FFF703FE45480078902804D121
:100A90004348407808B90120F2E70020F0E770B53C
:100AA0000546002402203E490870002048702B2093
:100AB00088708020C8703F20087141204871012053
:100AC00088712620C871C2200872022048720A204C
:100AD00088729820C872CB2008732020487300BF0A
:100AE00005E0295D2E4A04F10E001154641C202CEF
:100AF000F7DB2B48FFF79FFDFFF7FEFD08B900204D
:100B000070BD2748FFF7C3FD25480078902804D121
:100B10002348407808B90120F2E70020F0E770B5DB
:100B20000546002402201E490870002048704B2012
:100B300088708020C8703F200871412048710020D3
:100B400088714620C871C0200872022048720020B7
:100B500088720820C872CA2008734020487300BFFA
:100B600005E0295D0E4A04F10E001154641C402C6E
:100B7000F7DB0B48FFF75FFDFFF7BEFD08B900206C
:100B800070BD0748FFF783FD05480078902804D121
:100B90000348407808B90120F2E70020F0E70000A0
:100BA0002800002010B50446CC48844208D1012119
:100BB000042000F02DFB0021042000F029FB46E07A
:100BC000C748844208D10121082000F021FB002100
:100BD000082000F01DFB3AE0C248844208D1012100
:100BE000102000F015FB0021102000F011FB2EE07A
:100BF000BD48844208D10121202000F009FB0021DA
:100C0000202000F005FB22E0B848844208D10121F1
:100C1000402000F0FDFA0021402000F0F9FA16E033
:100C2000B348844208D10121802000F0F1FA00216C
:100C3000802000F0EDFA0AE0AE48844207D101219D
:100C4000801500F0E5FA0021A01500F0E1FA10BDD2
:100C500010B50121084600F0DBFA0021012000F068
:100C6000D7FA10BD2DE9F0410246002500260020EC
:100C700000230024002791F803C00CF00F0591F821
:100C800003C00CF0100CBCF1000F03D091F802C0AF
:100C90004CEA050591F800C0BCF1000F31D0146892
:100CA00000202BE04FF0010C0CFA00F3B1F800C06B
:100CB0000CEA03069E4220D183004FF00F0C0CFA81
:100CC00003F7BC4305FA03FC4CEA040491F803C0A3
:100CD000BCF1280F06D14FF0010C0CFA00FCC2F851
:100CE00014C00AE091F803C0BCF1480F05D14FF0E1
:100CF000010C0CFA00FCC2F810C0401C0828D1D32B
:100D00001460B1F800C0BCF1FF0F34DD546800205E
:100D10002EE000F1080C4FF0010808FA0CF3B1F8CE
:100D200000C00CEA03069E4221D183004FF00F0C55
:100D30000CFA03F7BC4305FA03FC4CEA040491F8EF
:100D400003C0BCF1280F05D100F1080C08FA0CF81B
:100D5000C2F8148091F803C0BCF1480F07D100F12C
:100D6000080C4FF0010808FA0CF8C2F81080401C7B
:100D70000828CED35460BDE8F0814FF6FF710180A2
:100D8000022181700421C1707047024600209368DF
:100D90000B400BB1012000E000207047014688683D
:100DA00080B2704702460020D3680B400BB101208F
:100DB00000E0002070470146C86880B270470161BA
:100DC0007047416170470AB1016100E041617047BD
:100DD000C16070474FF480320A4382618161826151
:100DE00082698269704702460020434B18684FF6BB
:100DF0008073184040EA021008433F4B1860704768
:100E00003E49C8617047F0B50A460023002400211E
:100E1000002500F00046B6F1004F02D1364EF169D0
:100E200001E0354E7168C0F3034583B200F440160B
:100E3000B6F5401F08D121F070612F4E766826F07C
:100E400070662D4F7E6012E000F48016B6F5801FAC
:100E500006D1032606FA05F4A14341F0706106E0CD
:100E6000460D360103FA06F6B14341F0706122B136
:100E7000460D360103FA06F6314300F00046B6F19E
:100E8000004F02D11C4EF16101E01B4E7160F0BDBC
:100E900030B500228B071C0F0F2303FA04F2164B08
:100EA00008338C1053F824309343134C08348D10BE
:100EB00044F8253023468C1053F824308C07240F37
:100EC00000FA04F423430C4C08348D1044F8253008
:100ED00030BD0A49DC31086070470000000801405D
:100EE000000C0140001001400014014000180140B6
:100EF000001C014000200140000001400000204291
:100F0000DF48006840F00100DD490860084640689D
:100F1000DC490840DA49486008460068DA49084078
:100F2000D74908600846006820F480200860084619
:100F3000406820F4FE0048604FF41F00886070474E
:100F4000CF49096821F48031CD4A11601146096802
:100F500021F480211160B0F5803F03D0B0F5802FDF
:100F60000ED106E0C649096841F48031C44A1160D7
:100F700007E0C349096841F4A021C14A116000E0BB
:100F800000BF00BF704710B50146002200230020BB
:100F90004A11012A02D1BA4C236806E0022A02D182
:100FA000B74C236A01E0B64C636A01F01F020124CA
:100FB00094401C400CB1012000E0002010BD38B569
:100FC000002000900024002500BF3120FFF7DBFF48
:100FD00005460098401C00900098B0F5A06F01D025
:100FE000002DF2D03120FFF7CEFF08B1012400E040
:100FF0000024204638BD01460020A14A106820F098
:10100000F80040EAC10010607047A04908607047CE
:10101000024600209A4B586820F47C1042EA0103F3
:101020001843974B586070479849086670470146C7
:101030000020934A506820F0030008435060704736
:101040008F48406800F00C007047014600208C4A31
:10105000506820F0F00008435060704701460020BF
:10106000874A506820F4E0600843506070470146AA
:101070000020834A506820F4605040EAC10050606C
:10108000704729B17E4A527A02437D4B5A7204E07E
:101090007B4A527A82437A4B5A7270477B49D831E5
:1010A0000860704701460020754A506820F44040AF
:1010B0000843506070470021714A20321170704A15
:1010C00082F82010012802D004280AD104E001216E
:1010D0006B4A2032117005E00521694A20321170F7
:1010E00000E000BF00BF704769490860704764496D
:1010F000096A0143624A11627047654944390860D0
:10110000704730B500210022002400235C4D6D683B
:1011100005F00C0121B1042905D0082923D105E0EF
:101120005C4D056022E05B4D05601FE0544D6D682D
:1011300005F47012524D6D6805F48034022505EBFC
:1011400092421CB9544D554305600BE04C4D6D68FF
:1011500005F400351DB1504D5543056002E04D4D7D
:101160005543056002E04B4D056000BF00BF444D94
:101170006D6805F0F0010909484D6B5C0568DD40BC
:1011800045603F4D6D6805F4E061090A434D6B5CB5
:101190004568DD4085603A4D6D6805F46051C90AC7
:1011A0003E4D6B5C4568DD40C560354D6D6805F4AE
:1011B0004041890B3A4D6B5CC568B5FBF3F50561A1
:1011C00030BD29B12E4A526902432D4B5A6104E0C9
:1011D0002B4A526982432A4B5A61704729B1284AE7
:1011E00092690243264B9A6104E0254A9269824340
:1011F000234B9A61704729B1214AD2690243204B9F
:10120000DA6104E01E4AD26982431D4BDA617047FD
:1012100029B11B4AD2680243194BDA6004E0184A2C
:10122000D2688243164BDA60704729B1144A1269BA
:101230000243134B1A6104E0114A12698243104BB6
:101240001A61704712494039086070470F49C864F5
:1012500070470B49C87170470948406A40F0807078
:1012600007494862704701460020054A92680A40D3
:101270000AB1012000E000207047014988727047E0
:10128000001002400000FFF8FFFFF6FE000042429F
:101290008004424200127A0000093D001400002040
:1012A000240000200648804706480047FEE7FEE786
:1012B000FEE7FEE7FEE7FEE7FEE7FEE7FEE7FEE706
:1012C0005F0300083101000840EA01039B0703D0D7
:1012D00009E008C9121F08C0042AFAD203E011F875
:1012E000013B00F8013B521EF9D27047064C074DF6
:1012F00006E0E06840F0010394E8070098471034E6
:10130000AC42F6D3FEF718FF301300085013000864
:1013100002E008C8121F08C1002AFAD170477047BE
:10132000002001E001C1121F002AFBD1704700001C
:1013300050130008000000202800000010130008CF
:101340007813000828000020800400002013000803
:1013500000A24A0400000000000000000102030493
:10136000060708090000000001020304010203044B
:08137000060708090204060843
:0400000508000131BD
:00000001FF
